{
  "contractName": "NewBiddingContract",
  "abi": [
    {
      "inputs": [
        {
          "name": "nm",
          "type": "string"
        },
        {
          "name": "desc",
          "type": "string"
        },
        {
          "name": "dur",
          "type": "uint256"
        },
        {
          "name": "sBid",
          "type": "uint256"
        }
      ],
      "payable": true,
      "stateMutability": "payable",
      "type": "constructor"
    },
    {
      "payable": true,
      "stateMutability": "payable",
      "type": "fallback"
    },
    {
      "anonymous": false,
      "inputs": [
        {
          "indexed": false,
          "name": "addr",
          "type": "address"
        },
        {
          "indexed": false,
          "name": "nm",
          "type": "string"
        },
        {
          "indexed": false,
          "name": "newHighBid",
          "type": "uint256"
        }
      ],
      "name": "HighBidChanged",
      "type": "event"
    },
    {
      "anonymous": false,
      "inputs": [
        {
          "indexed": false,
          "name": "addr",
          "type": "address"
        },
        {
          "indexed": false,
          "name": "nm",
          "type": "string"
        },
        {
          "indexed": false,
          "name": "bidAmt",
          "type": "uint256"
        }
      ],
      "name": "BidFailed",
      "type": "event"
    },
    {
      "constant": false,
      "inputs": [
        {
          "name": "newName",
          "type": "string"
        },
        {
          "name": "newBid",
          "type": "uint256"
        }
      ],
      "name": "placeBid",
      "outputs": [],
      "payable": true,
      "stateMutability": "payable",
      "type": "function"
    },
    {
      "constant": true,
      "inputs": [],
      "name": "getHighBid",
      "outputs": [
        {
          "name": "",
          "type": "uint256"
        }
      ],
      "payable": false,
      "stateMutability": "view",
      "type": "function"
    },
    {
      "constant": true,
      "inputs": [],
      "name": "getClaimAmount",
      "outputs": [
        {
          "name": "",
          "type": "uint256"
        }
      ],
      "payable": false,
      "stateMutability": "view",
      "type": "function"
    },
    {
      "constant": false,
      "inputs": [],
      "name": "claimEthers",
      "outputs": [],
      "payable": false,
      "stateMutability": "nonpayable",
      "type": "function"
    },
    {
      "constant": true,
      "inputs": [],
      "name": "getNumberOfBidders",
      "outputs": [
        {
          "name": "",
          "type": "uint256"
        }
      ],
      "payable": false,
      "stateMutability": "view",
      "type": "function"
    },
    {
      "constant": true,
      "inputs": [],
      "name": "hasBidExpired",
      "outputs": [
        {
          "name": "",
          "type": "bool"
        }
      ],
      "payable": false,
      "stateMutability": "view",
      "type": "function"
    },
    {
      "constant": true,
      "inputs": [],
      "name": "canBidEnd",
      "outputs": [
        {
          "name": "",
          "type": "bool"
        }
      ],
      "payable": false,
      "stateMutability": "view",
      "type": "function"
    },
    {
      "constant": true,
      "inputs": [],
      "name": "getBalance",
      "outputs": [
        {
          "name": "",
          "type": "uint256"
        }
      ],
      "payable": false,
      "stateMutability": "view",
      "type": "function"
    },
    {
      "constant": false,
      "inputs": [],
      "name": "endBidding",
      "outputs": [],
      "payable": false,
      "stateMutability": "nonpayable",
      "type": "function"
    }
  ],
  "bytecode": "0x60606040526040516200127d3803806200127d83398101604052808051820191906020018051820191906020018051906020019091908051906020019091905050836000908051906020019062000058929190620000de565b50826001908051906020019062000071929190620000de565b5081600281905550806003819055504260048190555033600560006101000a81548173ffffffffffffffffffffffffffffffffffffffff021916908373ffffffffffffffffffffffffffffffffffffffff160217905550600354600760020181905550505050506200018d565b828054600181600116156101000203166002900490600052602060002090601f016020900481019282601f106200012157805160ff191683800117855562000152565b8280016001018555821562000152579182015b828111156200015157825182559160200191906001019062000134565b5b50905062000161919062000165565b5090565b6200018a91905b80821115620001865760008160009055506001016200016c565b5090565b90565b6110e0806200019d6000396000f300606060405260043610610099576000357c0100000000000000000000000000000000000000000000000000000000900463ffffffff16806312065fe01461009b5780631a81d59c146100c45780635df3e96e146100d95780636931b5501461010657806371127ed21461011b57806374a9d46014610144578063a7eaa2411461016d578063e0664d10146101c8578063e94c05f5146101f5575b005b34156100a657600080fd5b6100ae61021e565b6040518082815260200191505060405180910390f35b34156100cf57600080fd5b6100d7610299565b005b34156100e457600080fd5b6100ec610344565b604051808215151515815260200191505060405180910390f35b341561011157600080fd5b610119610364565b005b341561012657600080fd5b61012e6104aa565b6040518082815260200191505060405180910390f35b341561014f57600080fd5b6101576105ad565b6040518082815260200191505060405180910390f35b6101c6600480803590602001908201803590602001908080601f016020809104026020016040519081016040528093929190818152602001838380828437820191505050505050919080359060200190919050506105ba565b005b34156101d357600080fd5b6101db610c33565b604051808215151515815260200191505060405180910390f35b341561020057600080fd5b610208610c55565b6040518082815260200191505060405180910390f35b6000600560009054906101000a900473ffffffffffffffffffffffffffffffffffffffff1673ffffffffffffffffffffffffffffffffffffffff163373ffffffffffffffffffffffffffffffffffffffff1614151561027c57600080fd5b3073ffffffffffffffffffffffffffffffffffffffff1631905090565b600560009054906101000a900473ffffffffffffffffffffffffffffffffffffffff1673ffffffffffffffffffffffffffffffffffffffff163373ffffffffffffffffffffffffffffffffffffffff161415156102f557600080fd5b600254600454014210151561033f57600560009054906101000a900473ffffffffffffffffffffffffffffffffffffffff1673ffffffffffffffffffffffffffffffffffffffff16ff5b600080fd5b600080600680549050141561035c5760019050610361565b600090505b90565b600080600091505b6006805490508210156104a15760068281548110151561038857fe5b906000526020600020906004020160000160009054906101000a900473ffffffffffffffffffffffffffffffffffffffff1673ffffffffffffffffffffffffffffffffffffffff163373ffffffffffffffffffffffffffffffffffffffff161415610494576006828154811015156103fc57fe5b906000526020600020906004020160030160009054906101000a900460ff16151561042657600080fd5b60068281548110151561043557fe5b906000526020600020906004020160020154905061045282610c62565b3373ffffffffffffffffffffffffffffffffffffffff166108fc829081150290604051600060405180830381858888f19350505050151561048f57fe5b6104a6565b818060010192505061036c565b600080fd5b5050565b600080600090505b6006805490508110156105a4576006818154811015156104ce57fe5b906000526020600020906004020160000160009054906101000a900473ffffffffffffffffffffffffffffffffffffffff1673ffffffffffffffffffffffffffffffffffffffff163373ffffffffffffffffffffffffffffffffffffffff1614156105975760068181548110151561054257fe5b906000526020600020906004020160030160009054906101000a900460ff161561058e5760068181548110151561057557fe5b90600052602060002090600402016002015491506105a9565b600091506105a9565b80806001019150506104b2565b600091505b5090565b6000600760020154905090565b60006105c4610e0f565b60025460045401421015610c285782341415156105e057600080fd5b6003543410156105ef57600080fd5b6105f76105ad565b915033816000019073ffffffffffffffffffffffffffffffffffffffff16908173ffffffffffffffffffffffffffffffffffffffff1681525050838160200181905250828160400181815250506001816060019015159081151581525050600073ffffffffffffffffffffffffffffffffffffffff16600760000160009054906101000a900473ffffffffffffffffffffffffffffffffffffffff1673ffffffffffffffffffffffffffffffffffffffff1614156108205780600760008201518160000160006101000a81548173ffffffffffffffffffffffffffffffffffffffff021916908373ffffffffffffffffffffffffffffffffffffffff1602179055506020820151816001019080519060200190610715929190610e56565b506040820151816002015560608201518160030160006101000a81548160ff0219169083151502179055509050507fd98a11da4f343254d2c8b1b71a4660cf725590d214f1732ae2b6d7a65ed74dae338585604051808473ffffffffffffffffffffffffffffffffffffffff1673ffffffffffffffffffffffffffffffffffffffff16815260200180602001838152602001828103825284818151815260200191508051906020019080838360005b838110156107df5780820151818401526020810190506107c4565b50505050905090810190601f16801561080c5780820380516001836020036101000a031916815260200191505b5094505050505060405180910390a1610c23565b81831115156109c1576006805480600101828161083d9190610ed6565b9160005260206000209060040201600083909190915060008201518160000160006101000a81548173ffffffffffffffffffffffffffffffffffffffff021916908373ffffffffffffffffffffffffffffffffffffffff16021790555060208201518160010190805190602001906108b6929190610e56565b506040820151816002015560608201518160030160006101000a81548160ff0219169083151502179055505050507faab6e917b2089e850050512474058e20b2f6dfb93b76ac38d1921588535627d2338585604051808473ffffffffffffffffffffffffffffffffffffffff1673ffffffffffffffffffffffffffffffffffffffff16815260200180602001838152602001828103825284818151815260200191508051906020019080838360005b83811015610980578082015181840152602081019050610965565b50505050905090810190601f1680156109ad5780820380516001836020036101000a031916815260200191505b5094505050505060405180910390a1610c22565b600680548060010182816109d59190610ed6565b91600052602060002090600402016000600790919091506000820160009054906101000a900473ffffffffffffffffffffffffffffffffffffffff168160000160006101000a81548173ffffffffffffffffffffffffffffffffffffffff021916908373ffffffffffffffffffffffffffffffffffffffff16021790555060018201816001019080546001816001161561010002031660029004610a7a929190610f08565b50600282015481600201556003820160009054906101000a900460ff168160030160006101000a81548160ff02191690831515021790555050505080600760008201518160000160006101000a81548173ffffffffffffffffffffffffffffffffffffffff021916908373ffffffffffffffffffffffffffffffffffffffff1602179055506020820151816001019080519060200190610b1b929190610e56565b506040820151816002015560608201518160030160006101000a81548160ff0219169083151502179055509050507fd98a11da4f343254d2c8b1b71a4660cf725590d214f1732ae2b6d7a65ed74dae338585604051808473ffffffffffffffffffffffffffffffffffffffff1673ffffffffffffffffffffffffffffffffffffffff16815260200180602001838152602001828103825284818151815260200191508051906020019080838360005b83811015610be5578082015181840152602081019050610bca565b50505050905090810190601f168015610c125780820380516001836020036101000a031916815260200191505b5094505050505060405180910390a15b5b610c2d565b600080fd5b50505050565b60006002546004540142101515610c4d5760019050610c52565b600090505b90565b6000600680549050905090565b600680549050811015610e0c576006600160068054905003815481101515610c8657fe5b9060005260206000209060040201600682815481101515610ca357fe5b90600052602060002090600402016000820160009054906101000a900473ffffffffffffffffffffffffffffffffffffffff168160000160006101000a81548173ffffffffffffffffffffffffffffffffffffffff021916908373ffffffffffffffffffffffffffffffffffffffff16021790555060018201816001019080546001816001161561010002031660029004610d3f929190610f08565b50600282015481600201556003820160009054906101000a900460ff168160030160006101000a81548160ff0219169083151502179055509050506006600160068054905003815481101515610d9157fe5b9060005260206000209060040201600080820160006101000a81549073ffffffffffffffffffffffffffffffffffffffff0219169055600182016000610dd79190610f8f565b60028201600090556003820160006101000a81549060ff021916905550506006805480919060019003610e0a9190610fd7565b505b50565b608060405190810160405280600073ffffffffffffffffffffffffffffffffffffffff168152602001610e40611009565b8152602001600081526020016000151581525090565b828054600181600116156101000203166002900490600052602060002090601f016020900481019282601f10610e9757805160ff1916838001178555610ec5565b82800160010185558215610ec5579182015b82811115610ec4578251825591602001919060010190610ea9565b5b509050610ed2919061101d565b5090565b815481835581811511610f0357600402816004028360005260206000209182019101610f029190611042565b5b505050565b828054600181600116156101000203166002900490600052602060002090601f016020900481019282601f10610f415780548555610f7e565b82800160010185558215610f7e57600052602060002091601f016020900482015b82811115610f7d578254825591600101919060010190610f62565b5b509050610f8b919061101d565b5090565b50805460018160011615610100020316600290046000825580601f10610fb55750610fd4565b601f016020900490600052602060002090810190610fd3919061101d565b5b50565b815481835581811511611004576004028160040283600052602060002091820191016110039190611042565b5b505050565b602060405190810160405280600081525090565b61103f91905b8082111561103b576000816000905550600101611023565b5090565b90565b6110b191905b808211156110ad57600080820160006101000a81549073ffffffffffffffffffffffffffffffffffffffff02191690556001820160006110889190610f8f565b60028201600090556003820160006101000a81549060ff021916905550600401611048565b5090565b905600a165627a7a723058204eaa9a868937a88bc5606230eaffce047048719524870bbeb486c874decf292a0029",
  "source": "pragma solidity ^0.4.4;\n\n/**\n * Project work: New Bidding contract\n * Implements the shell for the contract exercise described in the last section\n * Part of an online course.\n * http://acloudfan.com/learn-blockchain\n *\n * PLEASE NOTE : THIS IS A SHELL AND WILL REQUIRE YOU TO CODE THE FUNCTIONS\n *               OTHERWISE YOU WILL GET COMPILATION ERRORS\n **/\n\n/**\n * Additional description:\n * by Friman Sanchez. friman.sanchez.at.gmail.com\n * \n **/\n \n \n //import \"./NewBiddingContractAbstract.sol\";\n\n\n//contract NewBiddingContract is NewBiddingContractAbstract {\ncontract NewBiddingContract {\n\n  string    name;\n  string    description;\n  uint      duration;\n  uint      startBid;\n  uint      createdAt;\n  address   owner;\n  \n  \n  struct Bidder {\n    address   bidder;\n    string    name;\n    uint      bidAmount;\n    // Ethers pull pattern used\n    bool      claimedEthers;\n  }\n\n  // Declare the events\n  event HighBidChanged(address addr, string nm, uint  newHighBid);\n  event BidFailed(address addr, string nm, uint bidAmt);\n\n  // Maintain all bidders in an array\n  Bidder[]  bidders;\n\n  // This maintains the high bidder\n  Bidder    highBidder;\n\n  // Modifier to ensure owner is executing something.\n  modifier onlyOwner {\n    require(msg.sender == owner);\n    _;\n  }\n  \n  // Ensures that bid can be received i.e, auction not ended\n  modifier timed {\n    if(now < createdAt + duration){\n      _;\n    } else {\n      /**throw;*  Throw deprecated */\n      revert();\n    }\n  }\n\n  // Ensures that bid can be received i.e, auction not ended\n  modifier expired {\n    if(now >= createdAt + duration){\n      _;\n    } else {\n      /**throw;*  Throw deprecated */\n      revert();\n    }\n  }\n  \n  // duration in seconds\n  // start price in ethers\n  function NewBiddingContract(string nm, \n                           string desc, \n                           uint dur,\n                           uint sBid\n                           ) public payable {\n    // constructor\n    name=nm;\n    description=desc;\n    duration= dur;\n    startBid= sBid;\n    // Initalize createdAt to current time\n    createdAt = now;\n    owner = msg.sender;\n    highBidder.bidAmount = startBid; \n  }\n\n  // Bid function is what gets called by any bidder\n  function  placeBid(string newName, uint newBid) public payable timed {\n\n    if(msg.value != newBid) revert();\n\n    if(msg.value < startBid) revert();\n    \n    uint currentHighestBid = getHighBid();\n\n    // Create a Bidder structure and add to bidders array\n    Bidder memory theBidder;\n    theBidder.bidder = msg.sender;\n    theBidder.name = newName;\n    theBidder.bidAmount = newBid;\n\n    theBidder.claimedEthers = true;\n\n    // Consider the case when there is no bid\n    if( highBidder.bidder == address(0x0) ) {\n      // Replace the highBidder with the new high bidder\n      highBidder = theBidder;\n      // Emit High bid event\n      HighBidChanged(msg.sender, newName, newBid);\n    } else {\n      if( newBid <= currentHighestBid ) {\n        // Put theBidder into to bidders array.\n        bidders.push(theBidder);\n        // Emit a BidFailed Event\n        BidFailed(msg.sender, newName, newBid);\n      } else { // newBid > currentHighestBid\n        // Add the current high bidder to bidders array\n        bidders.push(highBidder);\n\n        // Replace the highBidder with the new high bidder\n        highBidder = theBidder;\n        // emit High bid event\n        HighBidChanged(msg.sender, newName, newBid);\n      }\n    }\n  }\n\n\n  function getHighBid() public constant returns (uint) {\n    // Return the bidAmount held in high bidder\n    return highBidder.bidAmount;\n  }\n  \n  \n  // This is invoked by anyone to check if there are ethers\n  // in the contract that they can claim\n  // Losers will be added to the bidders array. The claim flag in struct\n  // maintains the status of whether the caller has already been given the ethers or not\n  function  getClaimAmount() public view returns(uint){\n    for(uint i=0; i<bidders.length ; i++) {\n      // check if msg.sender is in the bidders\n      if( msg.sender == bidders[i].bidder) {\n        // check if claims flag is TRUE\n        if(bidders[i].claimedEthers) {\n          // return the bidAmount\n          return bidders[i].bidAmount;\n        }\n        return 0; // if claimedEthers is false, then return 0.\n      }\n    }\n    return 0;  // If there is not any bidder yet, then return 0.\n  }\n\n  \n  /**\n   * claimEthers: This is basically the Withdraw function.\n   * Losers will call this to get their bid ethers back  \n   **/\n  function  claimEthers() public {\n    // Check if there is a balance for the caller\n    for(uint i=0; i < bidders.length; i++){\n      // check if msg.sender is in the bidders\n      if(msg.sender == bidders[i].bidder){\n        // check if claims flag is TRUE\n\n        require(bidders[i].claimedEthers);\n\n        uint amount = bidders[i].bidAmount;\n\n        // Old version: \n        // We do not remove the bidder from the bidders, but \n        // we change the bidAmount and claimedEthers elements for this bidder\n        // bidders[i].bidAmount = 0;\n        // bidders[i].claimedEthers= false;\n        \n        // New version: we remove the bidder from the array of bidders.\n        removeBidder(i);\n\n        // revert() if sender returns a false\n        assert(msg.sender.send(amount));\n\n        return;\n      }\n    }\n    // That means the address was not found in the list of payers\n    revert();\n  }\n  \n\n  function getNumberOfBidders() public constant returns (uint) {\n    // Return the bidAmount held in high bidder\n    return bidders.length;\n  }\n\n  \nfunction removeBidder(uint index) private {    \n    if (index < bidders.length) {    \n      //Copy the last bidder of the array into the position [index].\n      bidders[index] = bidders[bidders.length-1];\n      delete bidders[bidders.length-1];\n      bidders.length--;\n    }\n    return;\n  }\n  \n  // Function for bidders to see if the bid has expired\n  function  hasBidExpired() public view returns (bool) {\n    // If there are not bidders to claim their ethers\n    if(now >= createdAt + duration) {\n      return true;\n    }\n    return false;\n  }\n\n  // Can a bid end if there are unclaimed ethers \n  // In later version the claims data will be moved to a separate contract\n  // Claims will be made losers against the separate contract\n  function  canBidEnd() public view returns (bool) {\n    // If there are not bidders to claim their ethers\n    if(bidders.length == 0) {\n        return true;\n    }\n    return false;\n  }\n\n  // To know the balance of the contract. Only owner can execute this method.\n  function getBalance() onlyOwner public view returns (uint){\n    return this.balance;\n  }\n  \n\n  // This ends the bidding \n  // Only owner can call this function - apply modifier\n  // All ethers returned to the owner as part of self destruct\n  function endBidding() onlyOwner expired public {\n    selfdestruct(owner);\n  }\n\n  \n  // If payable fallback is not defined then you wont be able to send \n  // ethers to the contract\n  function() public payable {\n    // Do nothing at this time....\n  }\n\n}\n",
  "sourcePath": "/home/fsanchez/COURSES/udemy/blockchain/documents/NewBiddingContract/contracts/NewBiddingContract.sol",
  "compiler": {
    "name": "solc",
    "version": "0.4.19+commit.c4cbbb05.Emscripten.clang"
  },
  "schemaVersion": "1.0.1",
  "updatedAt": "2018-03-05T17:02:51.076Z"
}